:100000000C942A000C9449000C9447000C9447006F
:100010000C9447000C9447000C9447000C94470044
:100020000C9447000C9447000C9447000C94470034
:100030000C9447000C9447000C9447000C94470024
:100040000C9447000C9447000C9447000C94470014
:100050000C94470011241FBECFE5D4E0DEBFCDBF16
:1000600010E0A0E6B0E0E8EAF5E002C005900D92ED
:10007000AA37B107D9F720E0AAE7B0E001C01D9286
:10008000AB37B207E1F70E9485000C94D2020C94C2
:1000900000001F920F920FB60F9211248F939F931F
:1000A00090917A0081E0892780937A009F918F91C7
:1000B0000F900FBE0F901F90189588BB9698959A39
:1000C00087E893E10197F1F700C0000082B3807CDC
:1000D00082BB18BA089588BB969A959A87E893E1EF
:1000E0000197F1F700C0000082B3807C82BB18BA90
:1000F0000895CF93DF93EC01899118161CF40E94A8
:100100006B00FACFDF91CF910895CF93DF9300D0AA
:1001100000D0CDB7DEB78FEF87BB1ABA80E681BBC0
:1001200081E085BF80E48BBF8ABF78948BE49DE13A
:100130000197F1F700C0000087B1806C87B986B1E4
:10014000876A86B981E00E945D0083ED90E30197A4
:10015000F1F700C0000088E30E945D0083ED90E3AA
:100160000197F1F700C000008FE00E945D0083ED71
:1001700090E30197F1F700C0000064B175B18B0105
:10018000169507951695079580917A00369A8823DB
:1001900051F080E690E00E9479004AE0BE016F5F76
:1001A0007F4FC8011DC080E790E00E947900B80130
:1001B00080E090E00E94A20120E030E048E151E4BC
:1001C0000E94300220E030E040E052E40E94000152
:1001D0000E946C01DC01CB014AE0BE016F5F7F4FE2
:1001E0000E949D02CE0101960E94790089E690E06E
:1001F0000E94790080E80E945D00369ABECF505878
:10020000BB27AA270E9417010C94F6010E94E8015F
:1002100038F00E94EF0120F039F49F3F19F426F4E2
:100220000C94E5010EF4E095E7FB0C94DF01E92F57
:100230000E94070258F3BA176207730784079507ED
:1002400020F079F4A6F50C9429020EF4E0950B2E1B
:10025000BA2FA02D0B01B90190010C01CA01A00118
:100260001124FF27591B99F0593F50F4503E68F173
:100270001A16F040A22F232F342F4427585FF3CFB4
:10028000469537952795A795F0405395C9F77EF485
:100290001F16BA0B620B730B840BBAF09150A1F0CE
:1002A000FF0FBB1F661F771F881FC2F70EC0BA0F54
:1002B000621F731F841F48F4879577956795B795DC
:1002C000F7959E3F08F0B0CF9395880F08F09927D7
:1002D000EE0F9795879508950E9473016894B11168
:1002E0000C942A0208950E940F0288F09F5798F0FC
:1002F000B92F9927B751B0F0E1F0660F771F881F2B
:10030000991F1AF0BA95C9F714C0B13091F00E9444
:100310002902B1E008950C942902672F782F8827CD
:10032000B85F39F0B93FCCF3869577956795B3956B
:10033000D9F73EF490958095709561957F4F8F4FDA
:100340009F4F0895E89409C097FB3EF490958095DF
:10035000709561957F4F8F4F9F4F9923A9F0F92F8B
:1003600096E9BB279395F695879577956795B79509
:10037000F111F8CFFAF4BB0F11F460FF1BC06F5FEF
:100380007F4F8F4F9F4F16C0882311F096E911C001
:10039000772321F09EE8872F762F05C0662371F022
:1003A00096E8862F70E060E02AF09A95660F771F36
:1003B000881FDAF7880F9695879597F9089597F92A
:1003C0009F6780E870E060E008959FEF80EC0895FB
:1003D00000240A9416161706180609060895002424
:1003E0000A9412161306140605060895092E03949E
:1003F000000C11F4882352F0BB0F40F4BF2B11F412
:1004000060FF04C06F5F7F4F8F4F9F4F089557FD70
:100410009058440F551F59F05F3F71F04795880F72
:1004200097FB991F61F09F3F79F087950895121609
:1004300013061406551FF2CF4695F1DF08C01616B5
:1004400017061806991FF1CF869571056105089466
:100450000895E894BB2766277727CB0197F908957D
:100460000E9443020C94F6010E94E80138F00E94B9
:10047000EF0120F0952311F00C94DF010C94E501BD
:1004800011240C942A020E94070270F3959FC1F375
:10049000950F50E0551F629FF001729FBB27F00D32
:1004A000B11D639FAA27F00DB11DAA1F649F662787
:1004B000B00DA11D661F829F2227B00DA11D621FD6
:1004C000739FB00DA11D621F839FA00D611D221F90
:1004D000749F3327A00D611D231F849F600D211D74
:1004E000822F762F6A2F11249F5750409AF0F1F0F7
:1004F00088234AF0EE0FFF1FBB1F661F771F881F60
:1005000091505040A9F79E3F510580F00C94DF01B7
:100510000C942A025F3FE4F3983ED4F386957795D6
:100520006795B795F795E7959F5FC1F7FE2B880F05
:10053000911D9695879597F90895BB274A3031F418
:10054000992322F4BDE2909581959F4F0C94A902C6
:10055000BB27FB015527AA27880F991FAA1FA4179D
:1005600010F0A41B83955051B9F7A05DAA3308F091
:10057000A95DA193009779F7B111B1931192CB01C5
:100580000C94C202DC01FC01672F71917723E1F723
:10059000329704C07C916D9370836291AE17BF0750
:0805A000C8F30895F894FFCFA1
:1005A80054656D702843293D00202020202020001C
:0A05B80054656D702846293D0000CF
:00000001FF
