:100000000C9433000C943D000C943D000C943D0086
:100010000C943D000C943D000C943D000C943D006C
:100020000C943D000C943D000C943D000C943D005C
:100030000C943D000C943D000C943D000C943D004C
:100040000C943D000C943D000C943D000C943D003C
:100050000C943D006D006D006F0071007300750021
:10006000770079007B0011241FBECFE5D4E0DEBF0E
:10007000CDBF0E943F000C94AF000C9400008FEFA6
:1000800081BB1DBC1CBC8EB582608EBD8EB58160EF
:100090008EBD20E030E0CAE0D0E010E400E188E767
:1000A000F82E92E0E92E42E1D42E59E1C52E60E30C
:1000B000B62E49E78CB59DB50196E1F7C901BE01A1
:1000C0000E948100FC013197E930F10520F4E65DE2
:1000D000FF4F0C94950012BB0FC042BB0DC0B2BACB
:1000E0000BC0C2BA09C0D2BA07C0E2BA05C0F2BAA0
:1000F00003C012BA01C002BB2F5F3F4F1DBC1CBC26
:10010000D9CF97FB072E16F4009407D077FD09D0BE
:100110000E949B0007FC05D03EF4909581959F4F6F
:100120000895709561957F4F0895EE0FFF1F05901C
:10013000F491E02D0994AA1BBB1B51E107C0AA1F33
:10014000BB1FA617B70710F0A61BB70B881F991F78
:100150005A95A9F780959095BC01CD010895F89422
:02016000FFCFCF
:00000001FF
