:100000000C942A000C943F000C943F000C943F0089
:100010000C943F000C943F000C943F000C943F0064
:100020000C943F000C943F000C943F000C943F0054
:100030000C943F000C943F000C943F000C943F0044
:100040000C943F000C943F000C943F000C943F0034
:100050000C943F0011241FBECFE5D4E0DEBFCDBF1E
:1000600010E0A0E6B0E0E6E6F1E002C005900D92F7
:10007000AE36B107D9F70E949B000C94B1000C94E6
:10008000000088BB84E082BB8FE99FE00197F1F715
:1000900000C0000012BA9FE728E381E091502040A1
:1000A0008040E1F700C00000089588E30E9441000D
:1000B0008FE99FE00197F1F700C0000081E00E9406
:1000C00041008FE99FE00197F1F700C000008EE04A
:1000D0000E9441008FE99FE00197F1F700C0000006
:1000E00080E80E9441008FE99FE00197F1F700C08E
:1000F0000000089588BB85E082BB8FE99FE00197EF
:10010000F1F700C0000081E082BB9FE728E381E0B7
:10011000915020408040E1F700C000000895CF9347
:10012000DF93EC0189918E3219F00E947A00FACFA8
:10013000DF91CF9108958FEF87BB87E081BB0E944D
:1001400055002FE788E391E0215080409040E1F78F
:1001500000C0000080E690E00E948F0080E090E008
:060160000895F894FFCFA2
:0E01660048656C6C6F20576F726C64212E0020
:00000001FF
