:100000000C942A000C9447000C9447000C94470071
:100010000C9447000C9447000C9447000C94470044
:100020000C9447000C9449000C9447000C94470032
:100030000C9447000C9447000C9447000C94470024
:100040000C9447000C9447000C9447000C94470014
:100050000C94470011241FBECFE5D4E0DEBFCDBF16
:1000600010E0A0E6B0E0E2E3F1E002C005900D92FE
:10007000A436B107D9F720E0A4E6B0E001C01D9294
:10008000A736B207E1F70E945A000C9497000C942F
:1000900000001F920F920FB60F9211248F93809140
:1000A00064008F5F809364008F910F900FBE0F905C
:1000B0001F90189581B3806F81BB84B384BBAA9ACB
:1000C00012BE83B7856083BF89B7816089BF88B757
:1000D000816088BF789421E09091640083B382FBB3
:1000E000882780F98217F9F09330E8F0E0916500F5
:1000F000F0916600E05AFF4F808182BB12BE1092E1
:1001000064008091650090916600019684309105AD
:1001100029F09093660080936500DECF1092660010
:1001200010926500D9CF8091640083B3D5CFF89445
:02013000FFCFFF
:04013200905060A0E9
:00000001FF
