:040000000C944B0011
:100004000C9400000C9400000C9400000C9400006C
:100014000C9400000C9400000C9400000C9400005C
:100024000C9400000C9400000C9400000C9400004C
:100034000C9400000C9400000C9400000C9400003C
:100044000C9400000C9400000C9400000C9400002C
:1000540053746F70004C4546540073706565643A80
:100064002000464F525741524400524947485400D9
:1000740080C001002D4E414E00494E46000005004F
:1000840060015400020085017400010089017600BA
:100094000000F894EE27ECBBF1E0FBBFEBBFE5BF3B
:1000A4008DE0A2E0BB27ED938A95E9F780E094E028
:1000B400A0E6ED930197E9F7E2E8F0E085919591E8
:1000C400009761F0A591B59105901590BF01F001DD
:1000D40005900D920197E1F7FB01F0CFEFE5EDBF3D
:1000E400E4E0EEBFC0E6D1E00C94BB00E0E0E2BB8C
:1000F400BED0A0E6B1E0DCD008950E94D8010E94F1
:10010400FF01FBBDEABD0E9408020E941102ADC0BE
:100114000E94D8010E941102A8C00E94D8010E9426
:100124001702A3C00E941D02A6E6B0E00E942602A8
:10013400E5E00E94420299C00E941D020E9447020B
:100144000E94FF01F9BDE8BD0E940802E1E00E949F
:1001540042028BC00E941D020E944702E1E00E94FD
:10016400420283C00E941D020E9447020E9417029D
:100174007CC0E0E0EBBBEABBE5BBEFE0E4BBE0E066
:10018400E2BBEFE0E1BBE0E0E3BFE2BFEFBDEEBD09
:10019400EDBDECBDE7BDE6BDEBBDEABDE9BDE8BD27
:1001A400E2BDE5BDE4BDE3BDE5BFE9BFE0E8E8B914
:1001B400E0E0E0BF5CD0A4E19DD0EBB3E03009F413
:1001C40095DFC89B03C0AEE1B0E0A7DFC99B03C0C5
:1001D400A4E1B0E09DDFCA9B05C0AAE0B0E08DDFDA
:1001E400EFE0E1BBCB9B03C0A4E1B0E09BDFCC9B81
:1001F40005C0AAE0B0E0A0DFEFE0E1BBCD9B03C007
:10020400A4E1B0E0A7DFCE9B03C0AEE1B0E0AADF7B
:10021400D4CFFFCFAA93E5B3EF70AE2FE881E07F90
:10022400EA2BE5BB8DE08A95F1F7AA9A8DE08A95D1
:10023400F1F7AA988DE08A95F1F788C0AA93A8816E
:10024400E9DFE881E295E883A881E4DF85E88A951F
:10025400F1F77CC0AA93E881F0E0EB57FE4FE08110
:10026400A981AE0FEBDF5980488022960895A2E061
:100274000E944A02ACE0E2DFA1E00E944A02E0E010
:100284004E2E5E2E0895AA93A881AA3011F0571419
:1002940048F0E0E0EA934394A42DDCDFA881AA307F
:1002A40009F454C05394A89AA881C8DFA8984EC0F2
:1002B400BA93AA931A93A981BA81ED91A983BA83B7
:1002C4001E2FE03019F0A12FDEDFF5CF10C0BA9356
:1002D400AA931A93E981FA813196E983FA833197D3
:1002E400E4911E2FE03019F0A12FCDDFF3CF188158
:1002F40023960895AA93E4B3E06FE4BBA29AA09A6C
:10030400A19AAA98A898A9987880E881E058E093DF
:100314008701E881E054E0938801A4E1B0E00E9401
:1003240058020E9450020E9450020E945002A0E211
:1003340071DF88EC90E00197F1F7A8E27FDFA4E099
:100344007DDFA5E87BDFA6E079DF91DF21960895C4
:10035400BA93AA93A991B991E991F99130962AF4A3
:10036400E095F09531966DE26D93E89480E197E223
:100374000DD088EE93E00AD084E6992707D08AE06E
:1003840005D06E2F10D066276C9308956627E81762
:10039400F90720F06395E81BF90BC9F7662311F4FC
:1003A40016F008956894605D6D930895BA93AA93C6
:1003B4000E943901E0E0EA93A0E00E942C01A9E543
:1003C400B0E00E946901E0E0EA93A1E00E942C0100
:1003D400AEE5B0E00E946901E881F981FA93EA93FD
:1003E400A5E6B1E00E94AA01E7E0EA93A1E00E9439
:1003F4002C01A5E6B1E00C945A018D9A8C9AE0E0A8
:10040400F0E0FDBDECBDE8ECF0E00895E3E0E7BD0D
:10041400E7EEE6BDE2EAEFBDE1E1EEBD0895E8E016
:10042400E2BBAAE0B0E00C945802E9E0E2BBAAE027
:10043400B0E00C945802BA93AA930E943901E0E008
:10044400EA93A0E00C942C010E946901E0E0EA9395
:10045400A1E00E942C01AEE5B0E00E946901E881B0
:10046400F981FA93EA93A5E6B1E00E94AA01E7E0D4
:10047400EA93A1E00E942C01A5E6B1E00C945A0194
:10048400E2BBAAE0B0E00C945802AEE6B0E0DCCFE8
:100494000E942001A3E0B0E00C945802A0E30E9463
:1004A4000C0188EC90E00197F1F70895109639F06B
:1004B40080ED97E00197F1F7A8951197C9F7089592
:00000001FF
