:100000000C942A000C9447000C9447000C94470071
:100010000C9447000C9447000C9449000C94470042
:100020000C9447000C9447000C9447000C94470034
:100030000C9447000C9447000C9447000C94470024
:100040000C9447000C9447000C9447000C94470014
:100050000C94470011241FBECFE5D4E0DEBFCDBF16
:1000600010E0A0E6B0E0E0E1F7E002C005900D92FC
:10007000AA37B107D9F720E0AAE7B0E001C01D9286
:10008000A038B207E1F70E94CC000C9486030C94D0
:1000900000001F920F920FB60F9211248F939F931F
:1000A00080917E0090917F00CC974CF480917E00EF
:1000B00090917F00019690937F0080937E008091C5
:1000C0007E0090917F00CC9799F480917C00909174
:1000D0007D00CC974CF480917C0090917D0001963E
:1000E00090937D0080937C0010927F0010927E00A0
:1000F00080917C0090917D00CC9799F480917A005A
:1001000090917B0048974CF480917A0090917B000D
:10011000019690937B0080937A0010927D0010925C
:100120007C0080917A0090917B00489721F4109296
:100130007B0010927A009F918F910F900FBE0F90CD
:100140001F90189588BB9698959A86E690E201973D
:10015000F1F7000082B3807C82BB8FEF88BB0895EB
:1001600088BB969A959A86E690E20197F1F700008F
:1001700082B3807C82BB8FEF88BB0895CF93DF93DF
:10018000EC01899118161CF40E94B000FACFDF919F
:10019000CF9108950C944603CF93DF93CDB7DEB78C
:1001A0002C970FB6F894DEBF0FBECDBF80EC8ABB94
:1001B0008FEF87BB81BB8EB58D608EBD80E39AE2E9
:1001C0009BBD8ABD789489B7806189BF81E00E9418
:1001D000A2002FEF8FEA91E0215080409040E1F79C
:1001E00000C0000088E30E94A2002FEF8FEA91E098
:1001F000215080409040E1F700C000008FE00E9455
:10020000A2002FEF8FEA91E0215080409040E1F76B
:1002100000C0000000E010E0E12CF12C8AE0C82EC4
:10022000D12CC801B6010E941E032B015C01C7013D
:10023000B6010E941E033B014C0180917A0090910F
:100240007B00B6010E941E03CB014AE050E0BE01D4
:10025000695F7F4F0E944603CE0107960E94BE0051
:1002600080917A0090917B00B6010E941E034AE0C3
:1002700050E0BE01695F7F4F0E944603CE010796A2
:100280000E94BE0087E790E00E94BE0083E80E94C3
:10029000A20080917C0090917D00B6010E941E0317
:1002A000CB014AE050E0BE01675F7F4F0E944603EA
:1002B000CE0109960E94BE0080917C0090917D0045
:1002C000B6010E941E034AE050E0BE01675F7F4F07
:1002D0000E944603CE0109960E94BE0085E80E9456
:1002E000A20087E790E00E94BE0086E80E94A2007C
:1002F00080917E0090917F00B6010E941E03CB0189
:100300004AE050E0BE01655F7F4F0E944603CE0188
:100310000B960E94BE0080917E0090917F00B601F6
:100320000E941E034AE050E0BE01655F7F4F0E94BD
:100330004603CE010B960E94BE00CD9B1FC080E6F7
:1003400090E00E94BE0060917A0070917B00409125
:100350007C0050917D0020917E0030917F0091E0E3
:100360006017710709F090E081E04E155F0509F014
:1003700080E0892319F0232B09F4DF9ACD9905C079
:1003800089E690E00E94BE00DF9880EC0E94A20007
:1003900082E790E00E94BE0087EC0E94A2004AE043
:1003A00050E0BE016F5F7F4FC2010E944603CE0145
:1003B00001960E94BE004AE050E0BE016F5F7F4F91
:1003C000C5010E944603CE0101960E94BE0089EC41
:1003D0000E94A20087E790E00E94BE008AEC0E9483
:1003E000A2004AE050E0BE016D5F7F4FC3010E9452
:1003F0004603CE0103960E94BE004AE050E0BE01D3
:100400006D5F7F4FC4010E944603CE0103960E9498
:10041000BE008CEC0E94A20087E790E00E94BE0024
:100420008DEC0E94A2004AE050E0BE016B5F7F4F5E
:1004300080E090E00E944603CE0105960E94BE0037
:100440004AE050E0BE016B5F7F4F80E090E00E9489
:100450004603CE0105960E94BE0080E80E94A200DD
:10046000CC9B91C0C89938C080917C0090917D0050
:10047000CC978CF480917C0090917D0001969093B4
:100480007D0080937C002CEC8CE697E0215080402E
:100490009040E1F700C080917C0090917D00CC9766
:1004A000D9F480917A0090917B0048974CF4809128
:1004B0007A0090917B00019690937B0080937A0064
:1004C00010927D0010927C002CEC8CE697E021507D
:1004D00080409040E1F700C0C99918C080917C002D
:1004E00090917D00181619068CF480917C009091F3
:1004F0007D00019790937D0080937C002CEC8CE62E
:1005000097E0215080409040E1F700C0CA9921C097
:1005100080917A0090917B0048974CF480917A000A
:1005200090917B00019690937B0080937A002CEC55
:100530008CE697E0215080409040E1F700C0809128
:100540007A0090917B00489721F410927B001092E2
:100550007A00CB9918C080917A0090917B00181690
:1005600019068CF480917A0090917B00019790930A
:100570007B0080937A002CEC8CE697E02150804041
:100580009040E1F700C0CC9958CEC89922C02CE326
:10059000E216F1045CF48FEFE81AF80A9CEC2CE602
:1005A00087E0915020408040E1F700C09CE3E916CD
:1005B000F10479F40831110514F40F5F1F4F2CEC8E
:1005C0008CE697E0215080409040E1F700C0E12C9C
:1005D000F12CC9990EC0E114F10459F021E0E21A9E
:1005E000F1088CEC9CE627E0815090402040E1F738
:1005F00000C0CA9912C00831110514F40F5F1F4FD3
:100600008CEC9CE627E0815090402040E1F700C050
:100610000831110511F400E010E0CB9902CE01156C
:10062000110509F4FECD015011098CEC9CE627E080
:10063000815090402040E1F700C0F3CD97FB072E9A
:1006400016F4009407D077FD09D00E94320307FC0E
:1006500005D03EF4909581959F4F089570956195D2
:100660007F4F0895AA1BBB1B51E107C0AA1FBB1FE8
:10067000A617B70710F0A61BB70B881F991F5A952E
:10068000A9F780959095BC01CD010895453251059B
:1006900020F4423010F00C945103FB011082CB0186
:1006A0000895BB274A3031F4992322F4BDE2909596
:1006B00081959F4F0C945D03BB27FB015527AA270B
:1006C000880F991FAA1FA41710F0A41B83955051DF
:1006D000B9F7A05DAA3308F0A95DA193009779F757
:1006E000B111B1931192CB010C947603DC01FC01A2
:1006F000672F71917723E1F7329704C07C916D9356
:1007000070836291AE17BF07C8F30895F894FFCFC6
:1007100020414C4D3A4F4E200020414C4D3A4F461F
:0A0720004600414C41524D3A0000E2
:00000001FF
