:100000000C942A000C9447000C9447000C94470071
:100010000C9447000C9447000C9447000C94470044
:100020000C9447000C9447000C9447000C94470034
:100030000C9447000C9447000C9447000C94470024
:100040000C9447000C9447000C9447000C94470014
:100050000C94470011241FBECFE5D4E0DEBFCDBF16
:1000600010E0A0E6B0E0E0E5F9E002C005900D92F6
:10007000A63AB107D9F720E0A6EAB0E001C01D9288
:10008000A33BB207E1F70E941E010C94A6040C9456
:10009000000088BB9698959A8FE39CE90197F1F749
:1000A00000C0000082B3807C82BB18BA089588BB70
:1000B000969A959A8FE39CE90197F1F700C00000AA
:1000C00082B3807C82BB18BA0895CF93DF93EC0192
:1000D000899118161CF40E945700FACFDF91CF9136
:1000E000089581E00C9449002AB128612AB920B50D
:1000F000266820BD9B01AC0184E0220F331F441F02
:10010000551F8A95D1F760E072E18AE790E00E947E
:100110009A018FEF820F89B9DA01C9010197A1090C
:10012000B109892F9A2FAB2FBB2780BD08955F9B04
:10013000FECF8CB10895CF938FEF87BB80E681BB54
:100140008FE59AEE0197F1F700C0000081E00E9470
:1001500049009FE728E381E0915020408040E1F78B
:1001600000C0000088E30E9449009FE728E381E087
:10017000915020408040E1F700C000008FE00E94D5
:1001800049009FE728E381E0915020408040E1F75B
:1001900000C000000E949700C82F80E790E00E94F6
:1001A00065008C2F0E94570089E790E00E9465004F
:1001B00080E8CF910C9449005D9BFECF8CB90895E7
:1001C0000F931F93CF938C01C0E0F801EC0FF11D4A
:1001D0008081882321F00E94DC00CF5FF6CFCF9191
:1001E0001F910F910895E0E6F0E034E090E78FEF83
:1001F00095BBAFE0B7E21197F1F700C0000023B361
:100200002F70273011F480810BC02B3011F48481C2
:1002100007C02D3011F4808503C02E3009F4848589
:10022000969590779068315031963111E1CF0895CD
:100230000E94F3008093A6000C94DC0015BA80EFB6
:1002400084BB8FEF87BB80E681BB8AB38ABBCBE8D8
:10025000D0E007EA10E081E00E9449002FE788E340
:1002600091E0215080409040E1F700C0000088E319
:100270000E9449002FE788E391E0215080409040A0
:10028000E1F700C000008FE00E9449002FE788E3FB
:1002900091E0215080409040E1F700C0000080E8EC
:1002A00090E00E9465000E94F300F82E2FEF821765
:1002B00091F01F928F93DF93CF931F930F930E9420
:1002C000BC0187EA90E00E9465000F900F900F90AC
:1002D0000F900F900F902FEF84E39CE0215080400F
:1002E0009040E1F700C000000E9471008EE890E0AD
:1002F0000E9465002FEFF21691F01F92FF92DF939C
:10030000CF931F930F930E94BC0187EA90E00E9455
:1003100065000F900F900F900F900F900F900E941C
:1003200071008BE990E00E9465005F9BFECF0E9408
:100330009B0091CFA1E21A2EAA1BBB1BFD010DC091
:10034000AA1FBB1FEE1FFF1FA217B307E407F50785
:1003500020F0A21BB30BE40BF50B661F771F881F61
:10036000991F1A9469F760957095809590959B01F7
:10037000AC01BD01CF010895AEE0B0E0E2ECF1E0E8
:100380000C947D040D891E8986E08C831A83098371
:100390008FEF9FE79E838D83AE01475E5F4F6F892E
:1003A000788DCE0101960E94DE01EF81F885E00F85
:1003B000F11F10822E96E4E00C949904ABE0B0E0BB
:1003C000E4EEF1E00C946F046C017B018A01FC0106
:1003D00017821682838181FFCCC1CE0101963C0138
:1003E000F6019381F70193FD859193FF81917F0140
:1003F000882309F4BAC1853239F493FD859193FFBE
:1004000081917F01853229F4B60190E00E94D503E5
:10041000E7CF912C212C312CFFE1F315D8F08B3252
:1004200079F038F4803279F08332A1F4232D206101
:100430001DC08D3261F0803369F4232D216016C018
:10044000832D8260382EE32DE4603E2E2AC0F32DEA
:10045000F8601DC037FC2DC020ED280F2A3040F079
:100460008E32B9F436FC81C1232D2064322E19C09E
:1004700036FE06C08AE0989E200D1124922E11C0EF
:10048000EAE02E9E200D1124222EF32DF0623F2E45
:1004900008C08C3621F4832D8068382E02C088363F
:1004A00041F4F70193FD859193FF81917F018111C3
:1004B000B3CF982F9F7D9554933028F40C5F1F4F36
:1004C0009FE399830DC0833631F0833771F0833514
:1004D00009F059C021C0F801808189830E5F1F4F48
:1004E00088248394912C530113C02801F2E04F0E0D
:1004F000511CF801A080B18036FE03C0692D70E068
:1005000002C06FEF7FEFC5010E94CA034C01820158
:10051000F32DFF773F2E16C0280122E0420E511C1A
:10052000F801A080B18036FE03C0692D70E002C0E2
:100530006FEF7FEFC5010E94BF034C01F32DF06800
:100540003F2E820133FC1BC0822D90E08816990655
:10055000B0F4B60180E290E00E94D5032A94F4CF73
:10056000F50137FC859137FE81915F01B60190E07E
:100570000E94D50321102A9421E0821A9108811447
:10058000910471F7E8C0843611F0893641F5F8011D
:1005900037FE07C060817181828193810C5F1F4F9C
:1005A00008C060817181072E000C880B990B0E5FCB
:1005B0001F4FF32DFF763F2E97FF09C09095809532
:1005C000709561957F4F8F4F9F4FF0683F2E2AE0C7
:1005D00030E0A3010E941104882E861845C085379B
:1005E00031F4232D2F7EB22E2AE030E025C0932D4A
:1005F000997FB92E8F36C1F018F4883579F0B5C0DF
:10060000803719F0883721F0B0C0E92FE061BE2EA5
:10061000B4FE0DC0FB2DF460BF2E09C034FE0AC02D
:10062000292F2660B22E06C028E030E005C020E168
:1006300030E002C020E132E0F801B7FE07C060817F
:100640007181828193810C5F1F4F06C0608171812F
:1006500080E090E00E5F1F4FA3010E941104882EDE
:100660008618FB2DFF773F2E36FE0DC0232D2E7FE3
:10067000A22E891458F434FE0BC032FC09C0832D1D
:100680008E7EA82E05C0B82CA32C03C0B82C01C0A8
:10069000B92CA4FE0FC0FE01E80DF11D808180334E
:1006A00021F49A2D997EA92E09C0A2FE06C0B3940A
:1006B000B39404C08A2D867809F0B394A3FC11C0CA
:1006C000A0FE06C0B21488F4280C922C9B180EC011
:1006D000B21460F4B60180E290E00E94D503B394B6
:1006E000F7CFB21418F42B1802C0982C212CA4FEBA
:1006F00010C0B60180E390E00E94D503A2FE17C0AF
:10070000A1FC03C088E790E002C088E590E0B60154
:100710000CC08A2D867859F0A1FE02C08BE201C080
:1007200080E2A7FC8DE2B60190E00E94D503891417
:1007300038F4B60180E390E00E94D5039A94F7CF95
:100740008A94F301E80DF11D8081B60190E00E94CA
:10075000D5038110F5CF222009F442CEB60180E204
:1007600090E00E94D5032A94F6CFF6018681978106
:1007700002C08FEF9FEF2B96E2E10C948B04FC01FB
:100780000590615070400110D8F7809590958E0FBC
:100790009F1F0895FC016150704001900110D8F72F
:1007A000809590958E0F9F1F08950F931F93CF9361
:1007B000DF93FB01238121FD03C08FEF9FEF2CC04E
:1007C00022FF16C046815781248135814217530785
:1007D00044F4A081B1819D012F5F3F4F318320837D
:1007E0008C93268137812F5F3F4F3783268314C038
:1007F0008B01EC01FB010084F185E02D0995892B2B
:10080000E1F6D80116968D919C911797019617964F
:100810009C938E931697CE01DF91CF911F910F91EC
:100820000895FA01AA27283051F1203181F1E89486
:100830006F936E7F6E5F7F4F8F4F9F4FAF4FB1E0D3
:100840003ED0B4E03CD0670F781F891F9A1FA11DCE
:10085000680F791F8A1F911DA11D6A0F711D811DCF
:10086000911DA11D20D009F468943F912AE0269F94
:1008700011243019305D3193DEF6CF010895462FF3
:100880004770405D4193B3E00FD0C9F7F6CF462FD4
:100890004F70405D4A3318F0495D31FD405241933D
:1008A00002D0A9F7EACFB4E0A695979587957795FA
:1008B0006795BA95C9F700976105710508959B0181
:1008C000AC010A2E06945795479537952795BA950A
:1008D000C9F7620F731F841F951FA01D08952F92E3
:1008E0003F924F925F926F927F928F929F92AF92C0
:1008F000BF92CF92DF92EF92FF920F931F93CF930D
:10090000DF93CDB7DEB7CA1BDB0B0FB6F894DEBFA3
:100910000FBECDBF09942A88398848885F846E84C9
:100920007D848C849B84AA84B984C884DF80EE8013
:10093000FD800C811B81AA81B981CE0FD11D0FB61C
:10094000F894DEBF0FBECDBFED010895F894FFCF40
:100950000704010A080502000906030B0C0D0E0F1F
:1009600054656D702843293D002020202020200060
:1009700041646D696E2049443A2000256400416459
:100980006D696E20506173733A200054656D702854
:0609900043293D20000098
:00000001FF
