:100000000C942A000C9434000C9434000C943400AA
:100010000C9434000C9434000C9434000C94340090
:100020000C9434000C9434000C9434000C94340080
:100030000C9434000C9434000C9434000C94340070
:100040000C9434000C9434000C9434000C94340060
:100050000C94340011241FBECFE5D4E0DEBFCDBF29
:100060000E94DD000C940C010C9400001ABA8FE57C
:100070009AEE0197F1F700C0000087B1806C87B954
:1000800086B1876A86B984B195B1369A9695879577
:100090009695879508952AB128612AB920B52668D2
:1000A00020BD9B01AC0184E0220F331F441F551F6C
:1000B0008A95D1F760E072E18AE790E00E94EA0059
:1000C0008FEF820F89B9DA01C9010197A109B1093E
:1000D000892F9A2FAB2FBB2780BD08955F9BFECF42
:1000E0008CB1089587B3806F87BB0E946E00882310
:1000F000B1F1C49AC598C698C79A2FEF30E792E03D
:10010000215030409040E1F700C00000C49AC598EB
:10011000C69AC7982FEF30E792E0215030409040C8
:10012000E1F700C00000C498C59AC69AC7982FEF9F
:1001300030E792E0215030409040E1F700C00000ED
:10014000C498C59AC698C79A2FEF30E792E021501D
:1001500030409040E1F700C000008150C8CF0895C2
:100160005D9BFECF8CB9089510BC83E389B91BB8A1
:1001700088E08AB986E880BD2FEF89E698E12150B2
:1001800080409040E1F700C000000E9436000E94CD
:10019000B00008950F931F93CF938C01C0E0F80136
:1001A000EC0FF11D8081882321F00E94B000CF5F09
:1001B000F6CFCF911F910F91089584B384BB8FEF39
:1001C00087BB80E681BB1ABA0E94B4008CB95F9BE2
:1001D000FECFFACFA1E21A2EAA1BBB1BFD010DC058
:1001E000AA1FBB1FEE1FFF1FA217B307E407F507E7
:1001F00020F0A21BB30BE40BF50B661F771F881FC3
:10020000991F1A9469F760957095809590959B0158
:0C021000AC01BD01CF010895F894FFCFB0
:00000001FF
